{
  "contractName": "DappToken",
  "abi": [
    {
      "constant": true,
      "inputs": [],
      "name": "totalSupply",
      "outputs": [
        {
          "name": "",
          "type": "uint256"
        }
      ],
      "payable": false,
      "stateMutability": "view",
      "type": "function"
    },
    {
      "inputs": [],
      "payable": false,
      "stateMutability": "nonpayable",
      "type": "constructor"
    }
  ],
  "bytecode": "0x608060405234801561001057600080fd5b50620f4240600081905550609e806100296000396000f300608060405260043610603f576000357c0100000000000000000000000000000000000000000000000000000000900463ffffffff16806318160ddd146044575b600080fd5b348015604f57600080fd5b506056606c565b6040518082815260200191505060405180910390f35b600054815600a165627a7a72305820478b62e6382964d5f0f497e6ce068c37b92ee8968109b9a902908f5d32f9826b0029",
  "source": "pragma solidity ^0.4.2;\r\n\r\ncontract DappToken {\r\n    // Constructor\r\n    //Set the total number of tokens\r\n    // Read the totla number of tokens\r\n    uint256 public totalSupply;\r\n    \r\n    function DappToken () public {\r\n        totalSupply = 1000000;\r\n\r\n    }\r\n\r\n}\r\n",
  "sourcePath": "F:\\Myntra\\tutorial\\token-sale\\contracts\\DappToken.sol",
  "compiler": {
    "name": "solc",
    "version": "0.4.24+commit.e67f0147.Emscripten.clang"
  },
  "schemaVersion": "2.0.1",
  "updatedAt": "2018-08-09T14:14:00.189Z"
}